:020000040800F2
:10000000707700105D0200082F3D0008F1390008EC
:100010002B3D0008F91100084143000800000000D2
:100020000000000000000000000000009D0100082A
:100030003313000800000000F9010008313D0008FA
:100040008102000881020008810200088102000884
:100050008102000881020008810200088102000874
:100060008102000881020008810200088102000864
:100070008102000881020008810200088102000854
:100080008102000881020008810200088102000844
:100090008102000881020008810200088102000834
:1000A0008102000881020008810200088102000824
:1000B0008102000881020008810200088102000814
:1000C0008102000881020008810200088102000804
:1000D00081020008D942000881020008E9420008B4
:1000E00081020008810200088102000881020008E4
:1000F00081020008810200088102000881020008D4
:1001000081020008810200088102000881020008C3
:1001100081020008810200088102000881020008B3
:1001200081020008810200088102000881020008A3
:100130008102000801140008810200088102000801
:100140008102000881020008810200088102000883
:100150008102000881020008810200088102000873
:100160008102000881020008810200088102000863
:100170008102000881020008191200080000000036
:100180008102000881020008DFF80CD000F064FE54
:1001900000480047D9BB0008707700102C4B196845
:1001A0000868B0E8F04F80F30988BFF36F8F4FF015
:1001B000000080F3118870470000000008480068C4
:1001C000006880F308884FF0000080F3148862B65E
:1001D00061B6BFF34F8FBFF36F8F00DF00BF00BF6B
:1001E00008ED00E0DFF80C00016841F470010160E7
:1001F000704700BF88ED00E0EFF30980BFF36F8F19
:10020000134B1A681EF0100F08BF20ED108A20E96A
:10021000F04F106009B44FF0500080F31188BFF325
:100220004F8FBFF36F8F17F037FD4FF0000080F353
:10023000118809BC19680868B0E8F04F1EF0100F6B
:1002400008BFB0EC108A80F30988BFF36F8F704746
:1002500084010010EFF30580704700000948016831
:1002600041F4700101600848804708480047FEE7F4
:10027000FEE7FEE7FEE7FEE7FEE7FEE7FEE7FEE756
:10028000FEE7000088ED00E0453D00088901000818
:100290002DE9F05F0546002092469B4688460646BB
:1002A000814640241BE0284641464746224600F04E
:1002B0008AFC53465A46C01A914110D3114618463B
:1002C000224600F071FC2D1A67EB01084F462246CA
:1002D0000120002100F068FC17EB00094E41201EB0
:1002E000A4F10104DFDC484631462A464346BDE816
:1002F000F09F000000487047E896010810B50446DA
:10030000FFF7F8FF0068005D00F0010010BDA0F1EC
:100310004101192900D82030704700000649074ADA
:100320000868504343F2390210440860400870479F
:100330000149086070470000180200106D4EC64168
:1003400010B5431A934209D28318881803E010F8B5
:10035000011D03F8011D521EF9D210BD40EA010330
:100360009B0703D009E008C9121F08C0042AFAD26B
:1003700003E011F8013B00F8013B521EF9D210BD19
:10038000D2B201E000F8012B491EFBD270470022D7
:10039000F6E710B513460A4604461946FFF7F0FF84
:1003A000204610BDCAB2401E10F8011F8A4202D07A
:1003B0000029F9D100207047421C10F8011B0029C8
:1003C000FBD1801A704710B5002200E0521C835CFC
:1003D0008C5CA34201D1002BF8D1D8B2E1B2401A13
:1003E00010BD30B504460020034600E05B1C93427C
:1003F00003D2E05CCD5C401BF8D030BD30B5054683
:100400000020034600E05B1C934205D2EC5CC85C14
:10041000201A01D1002CF6D130BD00002DE9FF4F8C
:10042000087881B09946FF2805D0491C2D2804D0B2
:100430000024002308E000230BE00124F9E703EB8C
:10044000830300EB4303491C0878FF28F7D104B16C
:100450005B4200200090147801462D2C01D02B2CFB
:1004600004D1521C2D2C12D00024009400251678A3
:10047000FF2E0ED00A24A0FB04C801FB0481002734
:1004800000FB0711521C16EB0C006941EFE7012439
:10049000EBE7994450EA01020ED00024AA4D26460B
:1004A000DFF8A88200F0B4FC82468B46B9F1000068
:1004B00009DAC9F100071BE001980021C0E9001129
:1004C00005B0BDE8F08F074612E0F80707D02246D6
:1004D0002B463046414600F0E4F90646884622465F
:1004E0002B461046194600F0DCF904460D467F10F5
:1004F000002FEAD1B9F1000F324643465046594623
:1005000002DA00F040FA01E000F0CBF9009A0AB1FB
:1005100081F00041019AC2E90001D1E72DE9FF4FC6
:100520001F468DB0D7E901464FF0FF382E204546D3
:100530004FF000090B90B9696D1C0E988847396A15
:10054000824688470028F6D1BAF1FF3F0AD024F44A
:10055000D064002E11DDBAF12B0F08D0BAF12D0FA7
:100560000BD102E0404611B0ABE744F48064B969B6
:100570006D1C0E9888478246761E6946600501D537
:100580002D2000E02B208DF8000001F1010B0DF172
:10059000200809E0B9696D1C0E98884782460F98BB
:1005A00044F40074761E0560002E02DDBAF1300FAF
:1005B000F0D00B998A453ED144F0800406E00F99B3
:1005C000681CA9F1010944F400740860B9696D1C44
:1005D000761E0E98884782463028F0D02BE00B9983
:1005E0008A4505D1200603D444F08004761E18E025
:1005F000504604F023F808B30DF11301761E44F4BD
:1006000000748B4508D2AAF130000BF8010B2006CC
:1006100007D5A9F1010003E0200602D409F1010089
:100620008146A00502D50F99681C0860B9696D1C48
:100630000E9888478246002ED1DC53E0002E51DD13
:10064000BAF1650F02D0BAF1450F4BD1A00549D5DB
:10065000B9696D1C24F44074761E0E988847824652
:10066000002E0CDD2B2804D0BAF12D0F07D144F455
:100670008074B9696D1C0E9888478246761EE00525
:1006800001D52D2100E02B2108F8011BCDF82C808D
:1006900021E00DF12901761E44F4007488450CD246
:1006A000AAF1300010F0FF0088F8000002D10B9989
:1006B000884509D908F1010806E0E00501D524487C
:1006C00001E042F20F708146B9696D1C0E988847AF
:1006D00082460F980560002E04DD504603F0AEFF01
:1006E0000028D6D1F9690E988847FF208BF80000C2
:1006F00088F800000020069007904B466A4608A93B
:1007000006A8FFF78BFEA00502D46FF001002AE7D0
:1007100014F0240F0AD0E00714D1DDE9061238687E
:10072000031D3B600068C0E900120BE0DDE9060133
:1007300000F008FA0146E00704D13868021D3A606B
:100740000068016028460EE7000024400000F03FEA
:10075000F1D8FFFF2DE9FE4F804681EA0300C00F6C
:100760000C46009021F0004123F00045B8EB020058
:10077000A94105D24046214690461C460B460246FA
:1007800023F00040104347D0270DC7F30A00C3F3FE
:100790000A510290401A019040286BDAC3F313000B
:1007A00040F4801B0098924620B10023D2EB030A4C
:1007B00063EB0B0B01985946C0F14002504600F024
:1007C000F3F906460D4650465946019A00F00BFAD9
:1007D00010EB08006141002487EA115284EAE773B4
:1007E0001A4340D0009A62B3019A012A4FEA075295
:1007F00015DC001B61EB02014FF0004202EA0752D8
:10080000CDE90042001C41F5801132462B4600F034
:10081000B1FA03B0BDE8F08F40462146F9E7001B6E
:1008200061EB0201001C41F5801300185B412018A8
:10083000A2F5001747EB030140EAD570B6196D41E8
:1008400011E06D084FEA360645EAC0754FEA0752D7
:10085000001B61EB0201001C41F5801149084FEAC1
:1008600030000019514132462B4603B0BDE8F04F2D
:1008700000F071BA0098012240000023D0EB020280
:1008800063EBE073009821464FEAE074B8EB000098
:1008900061EB0401E9E783F000435BE781F000418D
:1008A00058E72DE9FE4F81EA030404F0004421F0EB
:1008B000004100944FF0000B23F0004350EA010484
:1008C0005ED052EA03045BD0C3F30A54C1F30A5565
:1008D0002C44A4F2F3340194A0FB0254C1F313019D
:1008E00041F48011C3F3130343F4801301FB02446A
:1008F00000FB034E840A970A44EA815447EA83576F
:10090000A4FB076802958D0A05FB07854FEA932C27
:1009100004FB0C542705029D4FEA065847EA163798
:10092000B5EB08056EEB070C870E920E47EA8117B0
:1009300042EA8312A7FB0201B6EB0B0164EB000451
:100940002B0D43EA0C335E1844EB1C50DA4651463B
:10095000E7FB0201C5F313044FEA0B3343EA1453D8
:100960004FEA0432019C43EA0603A4F10C0402940A
:10097000009CCDE900B400F0FDF903B0BDE8F08FB4
:1009800000200146F9E72DE9F04D81EA030404F067
:10099000004B21F0004514464FF0000A23F00041BF
:1009A00050EA050220D054EA01021DD0C5F30A57CF
:1009B0000246C5F31303C1F31300C1F30A5640F412
:1009C000801543F48013A7EB0608101BD64608F2E7
:1009D000FD3873EB050002D308F1010801E092181D
:1009E0005B41B8F1000F03DA00200146BDE8F08D4D
:1009F00000204FF48011064684460EE0171B73EB6F
:100A0000050705D3121B63EB050306434CEA010CF3
:100A100049084FEA300092185B4150EA0107EDD1D6
:100A200052EA030012D082EA040083EA0501084377
:100A300005D0101BAB4106D20122002306E00022A4
:100A40004FF0004302E06FF0010253101AEB060072
:100A50004CEB085110EB0A0041EB0B01BDE8F04DE7
:100A600000F079B90EB540F2334102910021CDE991
:100A700000110A460B4600F07DF903B000BD70B5C9
:100A8000C1F30A5201F000450024C1F3130140F202
:100A9000FF3341F480119A4201DA002070BD40F228
:100AA00033439A42A2F2334203DC524200F08BF805
:100AB00000E090402C43F1D0404270BD00F0004275
:100AC00030F000400AD0C10D01F56071C0F316008E
:100AD00042EA0151C2084007114370470020014615
:100AE0007047000030B5041E71F1000404DB4FF0C4
:100AF0000044404264EB0101141E73F1000405DB65
:100B00001C464FF00043524263EB04038B4208BF84
:100B1000824230BD30B5041E71F1000404DB4FF099
:100B20000044404264EB0101141E73F1000405DB34
:100B30001C464FF00043524263EB0403994208BF46
:100B4000904230BD01F0004330B421F0004150EA42
:100B5000010206D00A0DA2F56072C1F31301002A4A
:100B600002DC30BC00207047440F44EAC104C100DD
:100B7000E01830BC00EBC25000F0B6B830B50B4600
:100B8000014600202022012409E021FA02F59D42BD
:100B900005D303FA02F5491B04FA02F52844151E91
:100BA000A2F10102F1DC30BD202A04DB203A00FA78
:100BB00002F1002070479140C2F1200320FA03F3B4
:100BC000194390407047202A04DB203A21FA02F0B2
:100BD0000021704721FA02F3D040C2F12002914077
:100BE000084319467047202A06DBCB17203A41FA02
:100BF00002F043EAE07306E041FA02F3D040C2F1AA
:100C000020029140084319467047426842B101688A
:100C100011F8013B23B1521EC0E90012184670477B
:100C20000121C160881E704742685AB1C3680168DB
:100C300043B983688B4205D0491E521CC0E900129B
:100C4000002070474FF0FF30704700000FB40023C2
:100C500000B589B00CA900910B996FF00042CB60F0
:100C60001E4B06931E4B07930423CDE901321D4A08
:100C7000089202466B460020FFF750FC09B05DF871
:100C800014FB70B586B006464FF0FF300091CDE9F9
:100C90000101002015460C4604903246694604A81E
:100CA000FFF7D4FF02460498211825B108B1084681
:100CB00000E020462860049800280DD0002A02DDBC
:100CC0000098884208D0081B0094CDE90104324600
:100CD000694604A8FFF7BAFF06B070BD0B0C000808
:100CE000290C0008FD0200080029A8BF7047401C1D
:100CF000490008BF20F00100704710B4B0FA80FC32
:100D000000FA0CF050EA010404BF10BC704749B16E
:100D1000CCF1200421FA04F411FA0CF118BF0121DE
:100D200021430843A3EB0C01CB1D4FEA00614FEABE
:100D3000102042BF002010BC704700EBC35010448D
:100D40000029A4BF10BC7047401C490008BF20F018
:100D5000010010BC704710B5141E73F1000408DACE
:100D6000401C41F1000192185B411A4301D120F06F
:100D7000010010BD2DE9F04D92469B4611B1B1FA2C
:100D800081F202E0B0FA80F220329046FFF70CFFC9
:100D900004460F4640EA0A0041EA0B0153465A4610
:100DA000084313D0114653EA010019D0C8F140029C
:100DB0005046FFF708FF05460E4650465946424644
:100DC000FFF7F2FE084305D0012004E02046394633
:100DD000BDE8F08D0020054346EAE0762C4337431A
:100DE0000A986305E40AA0EB08000022FD0A44EA21
:100DF00047540A3002D500200146E9E701051019E1
:100E00006941DDE9084500196941BDE8F04DA2E7F7
:100E10000EB540F2334202920022CDE90022134681
:100E2000FFF7A8FF03B000BDC1F30A52C1F31301DD
:100E300040F2FF3341F480119A4202DA0020014669
:100E4000704740F233439A42A2F2334202DC5242EC
:100E5000FFF7B9BEFFF7A8BE064C074D06E0E068F5
:100E600040F0010394E8070098471034AC42F6D3F1
:100E7000FFF78EF9209901086099010870B58C1868
:100E800010F8015B15F0070301D110F8013B2A119E
:100E900006D110F8012B03E010F8016B01F8016B8B
:100EA0005B1EF9D12B0705D40023521E0DD401F887
:100EB000013BFAE710F8013BCB1A921C03E013F850
:100EC000015B01F8015B521EF9D5A142D8D3002085
:100ED00070BD000070B5012500F006F9472000F054
:100EE000CDF800F043F9002409E0012C00D10025E1
:100EF000284600F095F806490855601CC4B2022C3B
:100F0000F3DB00F015F9052004F088FA70BD00004D
:100F10004C00001070B52DED068B04460025012015
:100F200000F056F9102000F053F9B42004F076FADE
:100F3000FFF7D0FF11480578407800EB052085B217
:100F40002846FFF78FFD41EC1A0B9FED0D0B53EC7C
:100F5000102BFFF7A6FC41EC190B9FED0B0B53EC8C
:100F6000102BFFF710FD41EC180BFFF7EBFD206095
:100F7000024800210180BDEC068B70BD4C000010C2
:100F8000000000000000F03F333333333333F33FCE
:100F900010B500BF00224021104801F081FD00BFC4
:100FA00007F075FD00BF012280210C4801F078FD9B
:100FB00000BF07F06CFD00BF00228021074801F050
:100FC0006FFD00BF07F063FD00BF01224021034811
:100FD00001F066FD00BF07F05AFD10BD0008024099
:100FE00010B500BF012240210C4801F059FD00BF9F
:100FF00007F04DFD00BF01228021084801F050FD9F
:1010000000BF07F044FD00BF00228021034801F02B
:1010100047FD00BF07F03BFD10BD00000008024087
:1010200070B50546002400261CE06006040E00BFD3
:1010300001228021104801F033FD00BF07F027FD99
:1010400040210D4801F024FD08B1601CC4B200BF6E
:1010500000228021084801F023FD00BF07F017FDA2
:10106000701CC6B2082EE0DB15B9FFF7B9FF01E02E
:10107000FFF78EFF204670BD0008024070B50446A1
:10108000002524E000BFE00928B1012240211548D5
:1010900001F006FD04E000224021124801F000FDAD
:1010A00000BF07F0F4FC00BF012280210D4801F0D1
:1010B000F7FC00BF07F0EBFC00BF002280210948CD
:1010C00001F0EEFC00BF6006040E681CC5B2082DDE
:1010D000D8DB00BF01224021024801F0E1FC00BF43
:1010E00070BD00000008024010B500BF0122402181
:1010F0000E4801F0D5FC00BF00BF012280210B4843
:1011000001F0CEFC00BF07F0C2FC00BF002240216E
:10111000064801F0C5FC00BF07F0B9FC00BF002283
:101120008021024801F0BCFC00BF10BD0008024055
:1011300010B500BF002240210B4801F0B1FC00BFF8
:1011400000BF01228021084801F0AAFC00BF07F07F
:101150009EFC00BF01224021034801F0A1FC00BF1A
:1011600007F095FC10BD00000008024070B5002497
:10117000002500BF01224021144801F091FC00BF6E
:1011800007F085FC00BF01228021104801F088FC97
:1011900000BF07F07CFC07E0601CC4B2FA2C03DD42
:1011A000FFF7C6FF012505E04021084801F070FC6B
:1011B0000028F1D100BF00BF00228021034801F0C8
:1011C0006FFC00BF07F063FC284670BD00080240BA
:1011D00070B504460025FFF787FF4620FFF74EFF56
:1011E000FFF7C4FF2046FFF749FFFFF7BFFF0546A3
:1011F000FFF79EFF284670BD00BFFEE770B50546AD
:10120000AC6BA06B406D022802D0012084F8250051
:10121000204600F051FB70BD10B5024800F064FBA1
:1012200010BD00001804001001460878103818237B
:10123000B0FBF3F20848805CC865032A05D908684A
:101240006FF30900001D886503E008686FF309006B
:101250008865886D704700001891010801460020DC
:101260008A6A8B69CBB932B1012A0DD0022A03D028
:10127000032A10D10EE000BFCB6A03F08073B3F1F4
:10128000807F00D1012007E0CB6AB3F1C07F00D19D
:10129000012001E000E000BF34E08B69B3F5005F9E
:1012A0001AD132B1012A07D0022A03D0032A11D160
:1012B0000AE000BF01200EE0CB6A03F08073B3F1B7
:1012C000807F00D1012006E0CB6AB3F1C07F00D15E
:1012D000012000E000BF15E032B1012A05D0022A4A
:1012E00004D0032A0CD103E000BF00BF012008E0B6
:1012F000CB6A03F08073B3F1807F00D1012000E05E
:1013000000BF00BF704730B50468246824F480240F
:1013100005682C60046863608468402C04D104680C
:10132000A2600468E16003E00468A1600468E26010
:1013300030BD704710B54FF4807102480068FFF768
:1013400026F810BD5C000010016801F58051896924
:1013500021F00202016801F580518A61704701683D
:1013600001F58051896941F00202016801F580515F
:101370008A617047016801F58051896921F4005242
:10138000016801F580518A617047016801F580515B
:10139000896941F40052016801F580518A61704702
:1013A00008B508490968C9084FF47A72B1FBF2F12F
:1013B0004143009100BF00BF00994A1E00920029DE
:1013C000F9D108BD0000001038B504460020009097
:1013D000206800F58050806940F48011206800F595
:1013E00080508161206800F5805080690090012064
:1013F000FFF7D6FF0099206800F58050816138BD65
:1014000010B50A49886A06F085FE08B10AF016FA96
:101410004FF480310548006800F58050416140215B
:101420000248006800F58050416110BDD0030010F3
:1014300030B503461479557944EA0520084C0C442C
:101440002064D4782406957844EA0544557844EA23
:101450000524157844EA0500014C0C44606430BD55
:101460000080024070B5AEB004460E46002526B19D
:101470004FF40061E160C900A1600020119012905A
:101480001390149015901690E06918B94FF480608D
:10149000179001E0002017904FF400701890002082
:1014A00019901A901B901C901D9040201E900020B7
:1014B0001F90209021902290239024902590269098
:1014C000802027900020289029902A902B902C9003
:1014D0002D902068056871480540DDE91101084339
:1014E0001399084314990843A168084315990843C0
:1014F00016990843E1680843179908431899084367
:10150000199908431A9908431B9908430543206811
:10151000056020680568012000F0A2FC20680560D5
:10152000DDE91C0108431E9908431F9908432099CF
:1015300008432199084322990843239908432168C5
:10154000486020684568012000F08AFC20684560FA
:1015500024982168886025982168C860206885697A
:101560004FF641700540DDE9261040EA0140289918
:101570000843299908432A9908432B9908430543AE
:101580002068856120688569012000F069FC206879
:101590008561DDE92C0108432168C8612068C569BF
:1015A000012000F05DFC2068C561002001904FF033
:1015B00000700290002003904FF40010049000206F
:1015C000059006900790089004200990C0050A90A5
:1015D00040120B9080010C9040120D9080200E90D4
:1015E00000200F901090206800F5805085692C48ED
:1015F0000540DDE9010108430399084304990843C4
:101600000599084306990843079908430899084330
:10161000099908430543206800F5805085612068DA
:1016200000F580508569012000F01AFC206800F563
:1016300080508561DDE90A0108430C9908430D9942
:1016400008430E9908430F9940EA81001099084316
:1016500040F40001206800F580500160206800F52A
:1016600080500568012000F0FBFB206800F58050E9
:101670000560A069012809D1206800F58050C06983
:1016800008490843216801F58051C86100212046BE
:101690006269FFF7CDFE2EB070BD00000F8120FF04
:1016A000233FDEF84000010038B5044600200090DA
:1016B0002068006820F00400216808602068006845
:1016C00000900120FFF76CFE00982168086038BD8B
:1016D00038B50446002000902068006840F00400FF
:1016E000216808602068006800900120FFF758FE1C
:1016F00000982168086038BD38B504460020009085
:101700002068006820F008002168086020680068F0
:1017100000900120FFF744FE00982168086038BD62
:1017200038B50446002000902068006840F00800AA
:10173000216808602068006800900120FFF730FEF3
:1017400000982168086038BD70B504461D46002326
:10175000B5F5804F13D154F822300C480340D1E93D
:10176000000640EA06108E6840EA06208E8940EAAC
:1017700006408E693043034344F8223003E06FF0A3
:10178000704044F82200002070BD00000000F0CF3F
:1017900010B503460022086853F820201248024082
:1017A000D1E901042043CC6820430C6920434C69F3
:1017B00020438C692043CC6920430C6A20434C6A47
:1017C00020438C6A2043CC6A2043CC6B20430C6BB3
:1017D000204302438868082801D142F0400208688B
:1017E00043F82020002010BD8000F0FF30B50346F4
:1017F0000024501C53F8204004F04044D1E9000577
:1018000040EA05108D6840EA05208D8940EA0545CB
:10181000088A401E45EA0055087D801E45EA0060A2
:101820008D6928430443501C43F82040002030BDFC
:1018300010B50446802002F031FA00EE100AB8EE2E
:10184000400AF7EE040A20EE200A84ED000A10BDDB
:1018500010B50446802002F02EFA00EBC00101EB27
:10186000001000EE100AB8EEC00AF7EE000A20EEF3
:10187000200A84ED000A10BD10B50446802002F055
:1018800000FA00EE100AB8EEC00AF7EE000A20EEE9
:10189000200A84ED000A10BD10B50446802002F035
:1018A000E3F900EE100AB8EEC00AF0EE040A20EEEA
:1018B000200A84ED000A10BD7047000010B50446F0
:1018C00001200749096848610648006880470448C4
:1018D0000068C06840F0010001490968C86010BD97
:1018E000180400104800001070B50446206805690F
:1018F00005F0040004280ED121684861E06B40F037
:101900000200E063042084F825002248A16B0865EA
:10191000A06B00F067F905F0020002280ED12168E3
:101920004861E06B40F00100E063042084F825008A
:101930001848A16B0865A06B00F054F905F0100081
:10194000102804D121684861204600F06EF805F0A7
:101950000800082804D121684861204600F0ECF80E
:1019600005F00100A0B12068006800F00200022824
:1019700005D12068C06820F01E002168C86020687A
:10198000C06820F001002168C8602046FFF796FF7C
:1019900070BD0000FD11000810B504460CB901200F
:1019A00010BD94F8250040B9002084F8240020469A
:1019B00000F03CF8204600F039F8022084F82500B9
:1019C0002068006840F6F871884321680860616902
:1019D00060680843E168084321690843A168084337
:1019E000A1690843216A08432168096808432168FE
:1019F0000860606810280BD1217F607F41EA0021D8
:101A0000A07F41EA0041E07F41EA006021688861EF
:101A10002068C06840F01E002168C8600020E063B4
:101A2000012084F825000020BAE7704710B586B081
:101A3000044600BF002000903A48006840F00100D2
:101A4000384908600846006800F00100009000BFB7
:101A500000BF00BF00200090081F006840F0010098
:101A6000091F08600846006800F00100009000BFF0
:101A700000BF00BF002000900846006840F0020050
:101A800008600846006800F00200009000BF00BF38
:101A900000BF002000900846006840F00400086085
:101AA0000846006800F00400009000BF00BF00BFBF
:101AB000002000900846006840F0100008600846CA
:101AC000006800F01000009000BF00BF502001909F
:101AD0000220029001200390032004900D20059025
:101AE00001A9114800F0D2FEC020019001A90F48C1
:101AF00000F0CCFE4FF43C60019001A90C4800F0CE
:101B0000C5FE6020019001A90A4800F0BFFE022234
:101B100007214E2001F037F84E2001F024F806B0DE
:101B200010BD0000343802400000024000040240B2
:101B30000008024000100240704770B50446A56DD1
:101B400000F0BAFF064694F83500022808D080203D
:101B5000606500BF002084F8340000BF012070BD24
:101B60002068006820F0160021680860206840693D
:101B700020F0800021684861206C08B9A06C28B171
:101B80002068006820F0080021680860206800686C
:101B900020F00100216808600FE000F08DFF801B3D
:101BA00005280AD92020606500BF002084F8340091
:101BB00000BF032084F83500D1E72068006800F0FA
:101BC00001000028E9D194F85C103F208840A8600B
:101BD00000BF002084F8340000BF012084F83500E5
:101BE0000020BCE7014691F83500022803D0802090
:101BF000486501207047052081F8350008680068B5
:101C000020F001000A6810600020F3E770B5044678
:101C10000CB9012070BD94F83500022800D1F9E715
:101C20002068006820F00100216808600020216819
:101C3000086021684860216888602168C860216860
:101C400008612120216848612046FFF7EDFA05462A
:101C50000020E06320646064A064E064206594F880
:101C60005C103F208840A8600020606584F8350043
:101C700000BF84F8340000BF00BFCBE72DE9F0417E
:101C80000446002500F018FF074614B90120BDE8FE
:101C9000F081606A00B100BF00BF002084F834000A
:101CA00000BF022084F835002068006820F00100A1
:101CB000216808600AE000F0FFFEC01B052805D976
:101CC00020206065032084F83500E0E72068006884
:101CD00000F001000028EED1206805682148054089
:101CE000D4E901010843E1680843216908436169B7
:101CF0000843A1690843E1690843216A0843054391
:101D0000606A042803D1D4E90B0108430543206825
:101D100005602068456925F00705606A0543606A2B
:101D200004280DD1A06A0543E06A48B12046FFF7B8
:101D300095FA28B140206065012084F83500A6E7B7
:101D4000206845612046FFF76FFA064694F85C105C
:101D50003F208840B06000206065012084F8350095
:101D6000002094E73F8010F02DE9F04104460D4635
:101D700016461F464FF0000800BF94F834000128B3
:101D800002D10220BDE8F081012084F8340000BFB8
:101D900094F83500012811D1022084F83500002084
:101DA00060653B46324629462046FFF7ACFA20687C
:101DB000006840F001002168086006E000BF0020D4
:101DC00084F8340000BF4FF002084046DAE72DE9FE
:101DD000F04704460D4616461F464FF00008D4F85B
:101DE000589000BF94F83400012802D10220BDE8C9
:101DF000F087012084F8340000BF94F835000128F2
:101E000025D1022084F83500002060653B4632462B
:101E100029462046FFF777FA94F85C103F20884067
:101E2000C9F808002068006840F0160021680860C2
:101E3000206C28B12068006840F008002168086024
:101E40002068006840F001002168086006E000BFDB
:101E5000002084F8340000BF4FF002084046C6E777
:101E600070B5044600F028FE06462546681C10B1F1
:101E700004480078054400BF00F01EFE801BA84205
:101E8000FAD370BD3400001070B504460D461646F6
:101E9000002200BF94F84500012801D1022070BD46
:101EA000012084F8450000BF022084F84400A562A8
:101EB00000221FE005EB42114FF00040086044F2A1
:101EC000F4504860C2EBC21000EB400006EB80000B
:101ED0008860A069012803D1486820F0004048606C
:101EE000581E904204D905EB42102030C86000E033
:101EF000CD60521C9A42DDD3206800F58050C56049
:101F0000012084F8440000BF002084F8450000BF91
:101F100000BFC4E770B504460D461646002200BF58
:101F200094F84500012801D1022070BD012084F8F9
:101F3000450000BF022084F84400E56200221BE057
:101F400005EB42114FF480100860C2EBC21000EBA9
:101F5000400006EB80008860E06918B9086840F42A
:101F600040000860581E904204D905EB4210203012
:101F7000C86000E0CD60521C9A42E1D3206800F5B1
:101F800080500561012084F8440000BF002084F8DF
:101F9000450000BF00BFC8E70146002200BF91F81E
:101FA0004500012801D102207047012081F8450039
:101FB00000BF022081F84400886A006800F00040F9
:101FC000002838D1886A006800F48070F0B1886B0E
:101FD000401C8863886B012801D1886A08638B6A7A
:101FE0004B63886A0068C0F30D40021FCA63086B28
:101FF00083680B64886AC0688862012081F84400A5
:1020000000BF002081F8450000BFCDE7886A006866
:1020100000F4007048B1886A086300234B63012311
:102020008B63886AC068886205E0886B401C88639F
:10203000886AC0688862012081F8440000BF0020DF
:1020400081F8450000BF0120AEE700002DE9FC410A
:1020500004460025002001909D4E0027804614B9BB
:102060000120BDE8FC8194F8440028B9002084F8E0
:102070004500204600F03AF900BF00200090954846
:10208000006840F48040934908600846006800F406
:102090008040009000BF00BF8F48006820F400001F
:1020A0008D49086008460068216A08438A4908602B
:1020B000206800F58050006840F00101206800F5BC
:1020C0008050016000F0F8FC07460FE000F0F4FCDF
:1020D000C01BB0F5FA7F09D9032084F8440000BF83
:1020E000002084F8450000BF0320BAE7206800F50F
:1020F0008050006800F001000028E7D120680569E1
:1021000025F01C0500F054FE06467448864205D3AF
:102110007348864202D245F008051AE070488642AC
:1021200005D36B48864202D245F00C0511E06848A1
:10213000864203D36B48864200D20AE06948864251
:1021400005D36948864202D245F0040501E045F016
:102150001005206805614FF400420021204600F080
:102160004DFB48B14FF0010841462046FFF77AF990
:10217000012084F8440074E7FF20FFF771FE6068D7
:10218000002871D000F098FC074600BF01AA012189
:10219000204600F0F9F900F08FFCC01B41F28831B5
:1021A00088420FD94FF0010841462046FFF75AF9FF
:1021B000012084F8440000BF002084F8450000BFDF
:1021C00003204EE7019800F004000428DED18202CB
:1021D0000021204600F012FB48B14FF001084146B3
:1021E0002046FFF73FF9012084F8440039E700F06A
:1021F00063FC074600BF01AA0121204600F0C4F994
:1022000000F05AFCC01B41F2883188420FD94FF0D0
:10221000010841462046FFF725F9012084F84400D3
:1022200000BF002084F8450000BF032019E7019893
:1022300000F020002028DED101AA1F21204600F056
:10224000A3F948B14FF0010841462046FFF70AF9CB
:10225000012084F8440004E7019800F0100020B148
:102260004FF40061E16002E00DE00021E1600198BF
:1022700000F00400042802D10021A1601EE04FF408
:102280008041A1601AE0E068C0F3CF00A168C1F30B
:102290004F0140EA01020021204600F0AFFA48B1A8
:1022A0004FF0010841462046FFF7DCF8012084F892
:1022B0004400D6E640F6FF70FFF7D2FD41462046C7
:1022C000FFF7D0F8012084F844000020C9E60000A0
:1022D000008793034438024004380140002D310147
:1022E000C00E160200E1F50580D1F00810B586B0E9
:1022F000044600BF00BF002000909E48006840F0E8
:1023000001009C4908600846006800F00100009048
:1023100000BF00BF00BF00BF00BF00200090084604
:10232000006840F0010008600846006800F0010005
:10233000009000BF00BF00BF00BF00BF00200090A2
:102340000846006840F0010008600846006800F098
:102350000100009000BF00BF00BF00BF00BF002011
:1023600000900846006840F00400086008460068D5
:1023700000F00400009000BF00BF00BF00BF00BF1E
:10238000002000900846006840F0040008600846FD
:10239000006800F00400009000BF00BF00BF00BF55
:1023A00000BF002000900846006840F0040008606C
:1023B0000846006800F00400009000BF00BF00BFA6
:1023C00000BF00BF002000900846006840F04000B9
:1023D00008600846006800F04000009000BF00BFA1
:1023E00000BF00BF00BF002000900846006840F01A
:1023F000400008600846006800F04000009000BF00
:1024000000BF00BF00BF00BF00200090084600686A
:1024100040F0400008600846006800F0400000906E
:1024200000BF00BF00BF00BF00BF002000900846F3
:10243000006840F0100008600846006800F01000D6
:10244000009000BF00BF00BF00BF00BF0020009091
:102450000846006840F0007008600846006800F018
:102460000070009000BF00BF00BF00200090084631
:10247000006840F0806008600846006800F08060F6
:10248000009000BF00BF00BF002000900846006819
:1024900040F0006008600846006800F000600090AE
:1024A00000BF00BF00BF02200190029000200390F7
:1024B000032004900B20059001A92F4800F0E6F9B5
:1024C0000420019001A92C4800F0E0F9802001903F
:1024D00001A9294800F0DAF90220019001A9274852
:1024E00000F0D4F91020019001A9244800F0CEF9A1
:1024F0002020019001A9214800F0C8F94FF40060A4
:10250000019001A91E4800F0C1F94FF4005001905C
:1025100001A91B4800F0BAF94FF48040019001A9CD
:10252000174800F0B3F90420019001200290002028
:1025300003900320049001A9124800F0A7F900BFFE
:10254000002204210F4800F0ABFA00BF322002F055
:1025500065FF00BF012204210A4800F0A1FA00BF74
:10256000002206213D2000F00EFB3D2000F0FBFA8A
:1025700006B010BD303802400000024000080240A2
:1025800000180240001002402DE9F04104460E46BA
:1025900017460025A84694F84400822802D102205C
:1025A000BDE8F081822084F844002068056905F0C8
:1025B0001C05208A4FF4784101EAC02005434811E8
:1025C00000EA8610054325F0020545F00105206864
:1025D000056100F071FA804612E000F06DFAA0EBA0
:1025E0000800B0F5803F09D3012084F8440000BF03
:1025F000002084F8450000BF0320D1E7206805696A
:1026000005F001000028E8D12068406980B23860F8
:10261000012084F844000020C2E710B5044600BF42
:1026200094F84500012801D1022010BD012084F852
:10263000450000BF022084F844002046FFF770F8F0
:102640002046FFF745F82046FEF7BEFE2046FEF77F
:102650009CFE2046FEF783FE012084F8440000BF64
:10266000002084F8450000BF00BFDEE710B5044637
:1026700000BF94F84500012801D1022010BD0120BF
:1026800084F8450000BF022084F844002046FEF78D
:1026900071FE2046FEF758FE2046FFF705F820465B
:1026A000FEF792FE2046FFF727F8012084F8440049
:1026B00000BF002084F8450000BF00BFDEE770B512
:1026C000024600230025002400BF92F8450001289F
:1026D00001D1022070BD012082F8450000BF022018
:1026E00082F8440049B9012082F8440000BF00206C
:1026F00082F8450000BF0120ECE7D06A006800F0D6
:10270000004048B1122082F8440000BF002082F847
:10271000450000BF0120DDE740F2F450814208D9B6
:10272000B1FBF0F3B1FBF0F600FB161010B15B1C2F
:1027300000E00123012B13D1D06A006840F0405023
:10274000D66A3060C1F30C00D66A7060D06A006847
:1027500040F00040D66A3060D06AC068D06232E093
:1027600000242EE0D06A006820F04050D66A306025
:102770002CB9D06A006840F08050D66A306040F2D0
:10278000F450D66A7060581EA04210D1D06A00681A
:1027900040F00050D66A3060581EC0EBC01000EB0D
:1027A0004000A1EB8005C5F30C00D66A7060D06ACA
:1027B000006840F00040D66A3060D06AC068D062DD
:1027C000641C9C42CED3106800F58050406900F034
:1027D000040048B10426106800F5805046610026C8
:1027E000106800F580504660012082F8440000BF68
:1027F000002082F8450000BF00BF6BE72DE9F041E3
:1028000004460E4617460025A84694F84400422880
:1028100002D10220BDE8F081422084F84400206803
:10282000056905F01C05208A4FF4784101EAC020B3
:102830000543481100EA8610054345F0020545F0BE
:102840000105B8B2216848612068056100F034F9DB
:10285000804612E000F030F9A0EB0800B0F5803FB0
:1028600009D3012084F8440000BF002084F845000B
:1028700000BF0320CEE72068056905F001000028AD
:10288000E8D1012084F844000020C3E7F8B50246EF
:102890000B460025002400200021DEE0012606FA78
:1028A00001F51E6806EA0504AC4275D11E7906F0F2
:1028B0000306012E04D01E7906F00306022E13D162
:1028C00090684F000326BE40B0434F00DE68BE4014
:1028D00030439060506801268E40B0431E79C6F3A5
:1028E00000168E40304350601E7906F00306032E1A
:1028F00009D0D0684F000326BE40B0434F009E6809
:10290000BE403043D0601E7906F00306022E13D17C
:10291000CF0802F1200656F827004E07F70E0F26C3
:10292000BE40B0434F07FF0E1E69BE403043CF0884
:1029300002F1200646F8270010684F000326BE402B
:10294000B0431E7906F003064F00BE4030431060CE
:102950005E6806F08056B6F1805F7DD100BF00262C
:102960000096404E366846F480463E4F3E603E46F6
:10297000366806F48046009600BF00BF3A4E8F08C6
:1029800056F827008E07370F0F26BE40B043374E4C
:10299000B24202D1002624E05EE0354EB24201D1BF
:1029A00001261EE0334EB24201D1022619E0324E1A
:1029B000B24201D1032614E0304EB24201D10426C6
:1029C0000FE02F4EB24201D105260AE02D4EB24251
:1029D00001D1062605E02C4EB24201D1072600E0C7
:1029E00008268F073F0FBE4030431F4E8F0846F822
:1029F0002700264E3068A0435E6806F48036B6F5A0
:102A0000803F00D12043214E3060361D3068A04306
:102A10005E6806F40036B6F5003F00D120431B4E39
:102A2000361D3060361D3068A0435E6806F480169F
:102A3000B6F5801F00D12043144E08363060361D95
:102A40003068A0435E6806F40016B6F5001F00D19A
:102A500020430E4E0C363060491C1029FFF41EAF87
:102A6000F8BD000044380240083801400000024030
:102A70000004024000080240000C02400010024026
:102A80000014024000180240001C0240003C0140BB
:102A9000024613690B400BB1012000E00020704793
:102AA0000AB1816101E00B0483617047014800684D
:102AB000000C7047002004E00148006870470000E7
:102AC0002C000010034800680349097808440149B4
:102AD000086070472C0000103400001010B50D483D
:102AE000006840F400700B4908600846006840F434
:102AF000806008600846006840F480700860032029
:102B000000F080F80F2000F007F800F02BF800200C
:102B100010BD0000003C024070B504460E4800782D
:102B20004FF47A71B1FBF0F00C490968B1FBF0F594
:102B3000284600F09BFC08B1012070BD102C07D284
:102B400000222146501E00F01EF80548046001E0F6
:102B50000120F2E70020F0E7340000100000001030
:102B600030000010704701460846002809DB00F0DD
:102B70001F0301229A4043099B0003F1E023C3F89D
:102B8000002100BF70472DE9F05F80460D461646D4
:102B9000002701F0FBFB074639462A46334601F081
:102BA0000700C0F1070ABAF1040F02D94FF0040A76
:102BB00001E0C0F1070AD14600F1040ABAF1070F9B
:102BC00002D24FF0000A01E0A0F1030AD4464FF010
:102BD000010A0AFA09FAAAF1010A0AEA020A0AFA39
:102BE0000CFA4FF0010B0BFA0CFBABF1010B0BEAEB
:102BF000030B4AEA0B042146404601F0CFFBBDE837
:102C0000F09F000000BF00F00702064B19684FF666
:102C1000FF031940044B0B4343EA0221014B1960A7
:102C200000BF70470CED00E00000FA0570B50446E7
:102C30000D460CB9012070BD5848006800F007002F
:102C4000A84209D255490D700846006800F00700F7
:102C5000A84201D00120EEE7207800F0020002280F
:102C60001DD1207800F00400042805D14C480068EC
:102C700040F4E0504A490860207800F00800082835
:102C800005D14748006840F4604045490860444821
:102C9000006820F0F000A1680843414908602078EE
:102CA00000F00100A8B36068012807D13C4808384B
:102CB0000068C0F34040B8B90120BCE76068022852
:102CC00002D06068032807D1354808380068C0F38F
:102CD000406048B90120AEE7314808380068C0F3C9
:102CE000400008B90120A6E72D48006820F0030045
:102CF000616808432A490860FFF7DEFE064609E0DE
:102D0000FFF7DAFE801B41F28831884202D90320A6
:102D100091E707E02248006800F00C006168B0EB22
:102D2000810FEDD11D48006800F00700A84209D9C5
:102D30001A490D700846006800F00700A84201D04B
:102D4000012078E7207800F00400042807D1144817
:102D5000006820F4E050E1680843114908602078D9
:102D600000F00800082808D10D48006820F46040F1
:102D7000216940EAC1000A49086000F03FF80849AB
:102D80000968C1F30311074A515CC840064908604D
:102D900006480068FFF7C0FE00204CE7003C0240F8
:102DA00008380240009101080000001030000010B7
:102DB00001480068704700000000001000B5FFF7F0
:102DC000F7FF04490968C1F38221034A515CC840F6
:102DD00000BD0000083802401091010800B5FFF75F
:102DE000E7FF04490968C1F34231034A515CC84016
:102DF00000BD000008380240109101082DE9F0479D
:102E0000002400250026A1462548006800F00C009B
:102E100020B1042805D008283AD105E0DFF88490D5
:102E200039E0DFF8849036E01D48001F006800F0AC
:102E30003F041B48001F006800F4800078B11A4866
:102E40001749091F0968C1F38811A0FB01700146E9
:102E5000224600233846FDF71BFA05460EE01148CE
:102E60000F49091F0968C1F38811A0FB01700146D1
:102E7000224600233846FDF70BFA05460848001F96
:102E80000068C0F30140401C4600B5FBF6F902E0C3
:102E9000DFF8109000BF00BF4846BDE8F087000093
:102EA000083802400024F40000127A00F8B5044605
:102EB0000CB90120F8BD207800F00100002874D082
:102EC000F948006800F00C0004280DD0F6480068AE
:102ED00000F00C00082813D1F348001F006800F42C
:102EE0008000B0F5800F0BD1EF4808380068C0F3C0
:102EF0004040002859D06068002856D10120D9E709
:102F000000BF6068B0F5803F08D1E7480838006826
:102F100040F48030E449083908601EE06068B0F58C
:102F2000A02F0DD1E0480838006840F48020DE4929
:102F3000083908600846006840F4803008600CE0FA
:102F4000D9480838006820F48030D749083908602B
:102F50000846006820F48020086000BF606890B1D7
:102F6000FFF7AAFD054606E0FFF7A6FD401B642813
:102F700001D903209EE7CC4808380068C0F34040E0
:102F80000028F1D011E0FFF797FD054606E0FFF7B6
:102F900093FD401B642801D903208BE7C248083801
:102FA0000068C0F340400028F1D1207800F0020012
:102FB00002285FD1BC48006800F00C0058B1BA4844
:102FC000006800F00C0008281CD1B748001F0068FA
:102FD00000F48000B0B9B44808380068C0F340007D
:102FE00020B1E068012801D0012063E7AE4808382D
:102FF000006820F0F800216940EAC100AA490839B8
:10300000086037E0E06800B30120A8490860FFF7D6
:1030100053FD054606E0FFF74FFD401B022801D98E
:10302000032047E7A04808380068C0F340000028A4
:10303000F1D09D480838006820F0F800216940EA86
:10304000C10099490839086014E0002097490860D8
:10305000FFF732FD054606E0FFF72EFD401B022874
:1030600001D9032026E7904808380068C0F34000E3
:103070000028F1D1207800F0080008282CD16069E0
:10308000A8B101208A490860FFF716FD054606E051
:10309000FFF712FD401B022801D903200AE78248EE
:1030A0006C300068C0F340000028F1D014E000202C
:1030B0007F490860FFF700FD054606E0FFF7FCFCCE
:1030C000401B022801D90320F4E677486C300068E1
:1030D000C0F340000028F1D1207800F0040004285B
:1030E00070D1002770483830006800F0805090B9E7
:1030F00000BF002000906C483830006840F08050DD
:103100006949383108600846006800F08050009036
:1031100000BF00BF01276748006800F48070B0B9A5
:103120006448006840F4807062490860FFF7C4FC9E
:10313000054606E0FFF7C0FC401B022801D903202A
:10314000B8E65C48006800F480700028F2D000BF48
:10315000A068012808D154486830006840F0010098
:103160005149683108601DE0A06805280DD14E481E
:103170006830006840F004004B4968310860084638
:10318000006840F0010008600CE0474868300068C3
:1031900020F001004449683108600846006820F0CA
:1031A0000400086000BFA068A8B1FFF785FC0546D1
:1031B00009E0FFF781FC401B41F28831884202D9C7
:1031C000032077E626E0384868300068C0F3400006
:1031D0000028EED013E0FFF76FFC054608E0FFF78C
:1031E0006BFC401B41F28831884201D9032061E623
:1031F0002D4868300068C0F340000028EFD1012F4F
:1032000007D129483830006820F0805026493831ED
:10321000086000BFA069002845D02348006800F07E
:103220000C0008285DD0A069022845D100201F4964
:103230000866FFF741FC054606E0FFF73DFC401B32
:10324000022801D9032035E6174808380068C0F382
:1032500040600028F1D1D4E907010843616A40EADF
:1032600081110122A06AC2EB500041EA00412C20EA
:10327000005D41EA00600C49091F086001200B490C
:103280000866FFF719FC054606E0FFF715FC401B32
:10329000022801D903200DE6034808380068C0F36E
:1032A00040600028F1D049E0083802400000474261
:1032B000800E474200700040002021490866FFF759
:1032C000FBFB054606E0FFF7F7FB401B022801D990
:1032D0000320EFE51B480068C0F340600028F2D1EE
:1032E0002CE0A069012800D1E4E51648001D06681D
:1032F000A069012820D006F48001E06981421BD139
:1033000006F03F01206A814216D147F6C070304076
:10331000616AB0EB811F0FD106F440310122A06A2F
:10332000C2EB5000B1EB004F06D106F070612C20CB
:10333000005DB1EB006F01D00120BBE50020B9E5D5
:10334000000047420038024070B504460E4615465C
:103350000CB9012070BD94F8490028B9002084F808
:103360004800204600F01CF804F108012068FEF730
:103370000FFA3146A2682068FEF738FA2946236B17
:10338000D4E90102FEF7E0F9A168206850F82100B5
:1033900040F00100A268216841F822000020D9E72E
:1033A00010B586B0044600BF002000902248006897
:1033B00040F00100204908600846006800F0010064
:1033C000009000BF00BF00BF002000901A480838DE
:1033D000006840F00800184908390860084600688D
:1033E00000F00800009000BF00BF00BF0020009068
:1033F0000846006840F0100008600846006800F0C9
:103400001000009000BF00BF4CF20370019002203A
:10341000029001200390022004900C20059001A945
:103420000648FFF733FA4FF68070019001A904486F
:10343000FFF72CFA06B010BD38380240000C0240ED
:1034400000100240042808D14FF0E021096941F042
:1034500004014FF0E022116107E04FF0E02109691B
:1034600021F004014FF0E0221161704770B504466D
:103470002546681EB0F1807F01D301200FE0681E51
:103480004FF0E02148610F214FF0FF3000F086FF40
:1034900000204FF0E021886107200861002070BD06
:1034A000F8B504460E46174694F83E0020282ED163
:1034B00006B10FB90120F8BD00BF94F83C00012807
:1034C00001D10220F7E7012084F83C0000BF20630F
:1034D0003A463146204600F05FFE0546ADB9206B06
:1034E000012811D100BF00200090206800680090E2
:1034F00020684068009000BF00BF2068C06840F0AE
:1035000010002168C86000E001252846D3E70220AA
:10351000D1E7704770B50446002520684069C0F3C4
:10352000C01594F83D0021280ED16DB12068406986
:1035300020F0800021684861606B10B1606BFEF77D
:10354000FCFA204600F0A9FC20684069C0F3801511
:1035500094F83E0022280ED16DB12068406920F019
:10356000400021684861A06B10B1A06BFEF7E5FA3E
:10357000204600F067FC002070BD70472DE9F84F31
:103580000446206805682068C668206847694FF0CF
:103590000009CA4605F00F09B9F1000F0AD105F07C
:1035A000200038B106F0200020B1204600F07FFC5A
:1035B000BDE8F88FB9F1000F72D007F0010018B91B
:1035C00006F4907000286BD005F0010030B106F4CD
:1035D000807018B1206C40F00100206405F00400F8
:1035E00030B107F0010018B1206C40F002002064F7
:1035F00005F0020030B107F0010018B1206C40F076
:103600000400206405F0080048B106F0200010B95D
:1036100007F0010018B1206C40F008002064206C15
:1036200070B305F0200028B106F0200010B120464C
:1036300000F03DFC20684069C0F3801A206C00F067
:10364000080010B9BAF1000F23D0204600F0FAFBB1
:103650002068406900F04000402816D12068406989
:1036600020F0400021684861A06B50B15648A16B22
:103670000865A06BFEF7B6FA10B1A06B016D884724
:103680000CE02046FFF779FF08E02046FFF775FFC2
:1036900004E02046FFF771FF0020206488E7FFE781
:1036A000206B012879D105F01000002875D006F0B4
:1036B0001000002871D000BF002000902068006832
:1036C000009020684068009000BF00BF20684069FB
:1036D00000F04000402839D1A06B006840681FFA14
:1036E00080F8B8F1000F30D0A08D40452DDDA4F852
:1036F0002E80A06BC069B0F5807F1FD02068C068A5
:1037000020F480702168C8602068406920F00100C2
:10371000216848612068406920F0400021684861C4
:10372000202084F83E00002020632068C06820F03C
:1037300010002168C860A06BFEF7FFF9A08DE28D34
:10374000801A81B22046FFF7E4FE31E7A08DE18DBB
:10375000401A1FFA80F8E08DE8B1B8F1000F1AD0D6
:103760002068C06820F490702168C86020684069B3
:1037700020F0010021684861202084F83E000020EC
:1037800020632068C06820F010002168C8604146AE
:103790002046FFF7BEFE0BE7FFE705F0800030B1E3
:1037A00006F0800018B1204600F065FD00E705F046
:1037B000400030B106F0400018B1204600F05DFB3B
:1037C000F6E600BFF4E60000593D000810B50446D7
:1037D0000CB9012010BDA06900B100E000BF94F851
:1037E0003D0028B9002084F83C00204600F028F86D
:1037F000242084F83D002068C06820F4005021682F
:10380000C860204600F0B2FB2068006920F49040B8
:10381000216808612068406920F02A002168486119
:103820002068C06840F400502168C860002020640F
:10383000202084F83D0084F83E000020CAE7000004
:1038400010B586B004462E492068884255D100BF85
:1038500000BF002000902B48006840F0100029496C
:1038600008600846006800F01000009000BF00BF2C
:1038700000BF00BF00BF002000902248143800683D
:1038800040F001001F49143908600846006800F044
:103890000100009000BF00BF00BF00BF00BF0020BC
:1038A00000900846006840F0010008600846006883
:1038B00000F00100009000BF00BF00BF481501905C
:1038C000022002900120039002200490072005901E
:1038D00001A90D48FEF7DAFF4FF480600190072040
:1038E000059001A90848FEF7D1FF2520FFF73BF915
:1038F000032206212520FFF746F906B010BD00007F
:1039000000100140443802400000024070B50446F7
:103910000D46164694F83E00202816D105B10EB982
:10392000012070BD00BF94F83C00012801D10220A5
:10393000F7E7012084F83C0000BF002020633246F6
:103940002946204600F074FCEBE70220E9E700007E
:1039500010B504462049206888423BD11F480088A2
:1039600000F4004088BB1D48008800F4804070B11E
:103970001B4800780A2803D000201849088024E05A
:103980001648008840F40040144908801DE014489F
:1039900000780D2806D11148008840F480400F4976
:1039A000088012E00E4800780C490988C1F30D0127
:1039B0000C4A505409480088401C084908800846B1
:1039C0000088C72801DD002008800122044906483C
:1039D000FFF79CFF10BD0000001001402800001000
:1039E0002A000010740200103C030010704770475A
:1039F00000BFFEE710B500BF002204211148FFF709
:103A00004FF800BF05F048F800BF012211030E482F
:103A1000FFF746F800BF05F03FF800BF00224FF463
:103A200080510948FFF73CF800BF05F035F800BFAA
:103A3000012204210348FFF733F800BF05F02CF8FA
:103A400010BD0000000C02400008024010B500BF8D
:103A5000012204210C48FFF723F800BF05F01CF8F1
:103A600000BF012211030948FFF71AF800BF05F053
:103A700013F800BF00224FF480510448FFF710F8FC
:103A800000BF05F009F810BD000C0240000802401C
:103A900070B50546002400261DE06006040E00BF38
:103AA000012211031148FEF7FBFF00BF04F0F4FFF1
:103AB00004210F48FEF7ECFF08B1601CC4B200BF40
:103AC00000224FF480510948FEF7EAFF00BF04F0DE
:103AD000E3FF701CC6B2082EDFDB15B9FFF7B6FF97
:103AE00001E0FFF787FF204670BD0000000802409C
:103AF000000C024070B50446002525E000BFE00937
:103B000028B1012204211548FEF7CAFF04E0002273
:103B100004211248FEF7C4FF00BF04F0BDFF00BF40
:103B2000012211030E48FEF7BBFF00BF04F0B4FFF3
:103B300000BF00224FF480510948FEF7B1FF00BFDB
:103B40006006040E681CC5B2082DD7DB00BF012239
:103B500004210248FEF7A4FF00BF70BD000C024024
:103B60000008024010B500BF012204211048FEF7F2
:103B700097FF00BF00BF012211030E48FEF790FF20
:103B800000BF04F089FF00BF002204210848FEF7AF
:103B900087FF00BF04F080FF00BF00224FF4805178
:103BA0000448FEF77DFF00BF04F076FF10BD000063
:103BB000000C02400008024010B500BF00220421A2
:103BC0000C48FEF76DFF00BF04F066FF00BF012246
:103BD00011030948FEF764FF00BF04F05DFF00BF5A
:103BE000012204210348FEF75BFF00BF04F054FFED
:103BF00010BD0000000C02400008024070B5002417
:103C0000002500BF012204211548FEF749FF00BF2F
:103C100004F042FF00BF012211031248FEF740FFEB
:103C200000BF04F039FF07E0601CC4B2FA2C03DDCA
:103C3000FFF7C2FF012505E004210948FEF728FF30
:103C40000028F1D100BF00BF00224FF48051054889
:103C5000FEF726FF00BF04F01FFF284670BD0000DE
:103C6000000C02400008024070B504460025012106
:103C7000204600F048F8204600F02AF805B2284611
:103C800070BD70B5044600250421204600F03BF8C5
:103C9000204600F01DF805B2284670BD70B50546F7
:103CA00000240221284600F02EF8284600F010F8E3
:103CB0000446204670BD70B5044600250321204609
:103CC00000F021F8204600F003F805B2A8B270BD5C
:103CD00070B505460024FFF745FF691CC8B2FFF721
:103CE00009FFFFF78BFF0120FFF7D2FE04464FF6D6
:103CF000FF7000EA04240020FFF7CAFE0443FFF728
:103D00005BFF204670BD70B505460C46FFF72AFFE5
:103D10002846FFF7EFFEFFF771FF2046FFF7EAFEA8
:103D2000FFF76CFFFFF748FF70BD00BFFEE770476D
:103D300010B5FEF7C7FE14F00BFE012801D014F0F9
:103D4000DDF810BD0348006840F4700001490860C8
:103D50007047000088ED00E070B50546AC6B0020B0
:103D6000E085E0842046FFF708FC70BD70B506468C
:103D70000025B46B20684069C0F3C01594F83D007D
:103D8000212805D125B10020E084204600F085F8E7
:103D900020684069C0F3801594F83E00222805D1C0
:103DA00025B10020E085204600F04CF8206C40F062
:103DB000100020642046FFF7E0FB70BD70B505469B
:103DC000AC6B2868006800F48070F8B90020E085CA
:103DD0002068C06820F480702168C860206840694D
:103DE00020F00100216848612068406920F040000F
:103DF00021684861202084F83E00206B012805D10D
:103E00002068C06820F010002168C860206B01287D
:103E100004D1A18D2046FFF77CFB02E02046FFF78E
:103E200097FD70BD70B50546AC6B206B012805D1C0
:103E3000A08D41082046FFF76CFB02E02046FFF70B
:103E4000D5FD70BD0168C96821F490710268D16028
:103E50000168496921F0010102685161016B012982
:103E600005D10168C96821F010010268D1602021E4
:103E700080F83E1000210163704710B504462068A9
:103E8000C06820F040002168C860202084F83D0010
:103E90002046FFF7ACFD002010BD0168C96821F085
:103EA000C0010268D160202180F83D10704770B5D4
:103EB000044694F83E00222856D1A068B0F5805FF1
:103EC0000CD1206950B90025A66A20684068C0F36B
:103ED00008003080A06A801CA06215E0A56A002658
:103EE000A068B0F5805F03D0A06828B9206918B930
:103EF00020684068287004E02068406800F07F0077
:103F00002870A06A401CA062E08D401E80B2E0854F
:103F100040BB2068C06820F020002168C86020688D
:103F2000C06820F480702168C8602068406920F073
:103F3000010021684861202084F83E00206B0128A0
:103F40000AD12068C06820F010002168C860A18DE7
:103F50002046FFF7DEFA02E02046FFF7F9FC0020DA
:103F6000206370BD0020FCE70220FAE72DE9F84F3E
:103F700004462068006920F44050E1680843216845
:103F800008612169A068084361690843E169084341
:103F900000902068C06849F20C618843009908438A
:103FA0002168C8602068406920F44070A169084316
:103FB0002168486176492068884203D075492068A5
:103FC000884203D1FEF70AFF814602E0FEF7F6FEC3
:103FD0008146E069B0F5004F6CD102206168A0FB1A
:103FE000015003461920A9FB007001462A463846B5
:103FF000FCF74EF96421B0FBF1F04FEA001A022001
:104000006168A0FB01510B461920A9FB00712A46EB
:104010003846FCF73DF9834602206168A0FB015059
:1040200003461920A9FB00712A463846FCF730F9EF
:104030006421B0FBF1F000EBC00101EB0010ABEB31
:104040008000322101EBC0006421B0FBF1F000F0F0
:10405000F8000AEB400A02206168A0FB0150034609
:104060001920A9FB007001462A463846FCF710F9D2
:10407000834602206168A0FB015003461920A9FB7A
:1040800000712A463846FCF703F96421B0FBF1F0D1
:1040900000EBC00101EB0010ABEB8000322101EB23
:1040A000C0006421B0FBF1F000F00700504421682B
:1040B00088606AE004206168A0FB01500346192073
:1040C000A9FB007001462A463846FCF7E1F8824613
:1040D00004206168A0FB015003461920A9FB007071
:1040E00001462A463846FCF7D3F86421B0FBF1F0CC
:1040F00000EBC00101EB0010AAEB8000322101EBC4
:1041000000106421B0FBF1F000F0F00A04206168B7
:10411000A0FB017003461920A9FB00513A4628462E
:10412000FCF7B6F86421B0FBF1F00AEB001A0420AA
:104130006168A0FB01510B461920A9FB00712A46BA
:104140003846FCF7A5F8834604206168A0FB0150BF
:1041500003461920A9FB007001462A463846FCF7A1
:1041600097F86421B0FBF1F000EBC00101EB001007
:10417000ABEB8000322101EB00106421B0FBF1F0C9
:1041800000F00F00504421688860BDE8F88F0000FF
:10419000001001400014014077B581B00446154677
:1041A0000298A062A58500202064222084F83E00A9
:1041B0001C48A16BC8631C48A16B08641B48A16B19
:1041C000C8640020A16B086502AE32682368191D1F
:1041D0002B46A06BFDF7FBFD00BF00200090206880
:1041E0000068009020684068009000BF00BF00BFDA
:1041F000002084F83C0000BF2068C06840F4807054
:104200002168C8602068406940F001002168486169
:104210002068406940F0400021684861002004B0F7
:1042200070BD0000BD3D0008253E00086D3D000842
:1042300010B5034699629A85DA8500201864222019
:1042400083F83E0000BF002083F83C0000BF1868E0
:10425000C06840F480701C68E0601868406940F0F5
:1042600001001C6860611868C06840F020001C688C
:10427000E060002010BD014691F83D00212828D1C2
:104280008868B0F5805F0BD1086948B90A6A108860
:10429000C0F308000B685860086A801C086205E0DB
:1042A0000B6A581C086218780B685860C88C401E4E
:1042B00080B2C88458B90868C06820F080000B68D4
:1042C000D8600868C06840F040000B68D8600020E3
:1042D00070470220FCE7000010B50248FFF74EF9D6
:1042E00010BD00003C03001008B5134800680068CA
:1042F000C0F30010F8B100BF002000900E48006825
:10430000006800900C4800684068009000BF00BF43
:104310000948006800680848006840680648FFF7D8
:10432000F9F84FF48072054801680348FFF7B8F8C0
:104330000148FFF723F908BDD00400105C0000100D
:1043400000BFFEE70FB4054B10B503A9044A02985D
:1043500000F07CF910BC5DF814FB00007D850008BE
:10436000240000100FB4084B10B504A902AA03984A
:1043700000F06CF9044602A9002000F0FEFC204683
:1043800010BC5DF814FB00007B4D0008024800687B
:10439000C0F30220704700000CED00E010B50028CB
:1043A00004DB0A07130E054A135406E00A07140E2D
:1043B000034A00F00F031B1FD45410BD00E400E0BB
:1043C00018ED00E030B528B1144C031F002021681F
:1043D0000A4605E0084630BD9A4203D810465268A6
:1043E000002AF9D1002800D041680BD00468A3EB63
:1043F0000005A54204D11B681C440346046002E08A
:10440000436000E023603AB11C68D51AA54203D18D
:1044100015682C441C6052685A6030BD1C020010A4
:1044200000B583B09FED060B0A4601468DED000BEB
:104430006846FCF726FC9DED000B03B000BD0000B4
:1044400000000000000000002DE9F04782460F4CFC
:1044500010480D4E0E4F001B4FF0000820F00705CE
:104460004FF0010900221146504604F045FB002898
:1044700002D1306810B10020BDE8F0873C60C4E98B
:104480000058C6F80090EDE7200200107473001089
:104490001C0200107073001002E008C8121F08C14F
:1044A000002AFAD170477047002001E001C1121FB5
:1044B000002AFBD1704700002DE9FF5F82B0002188
:1044C000DDE90430020DDDF840B0034318D044F6B6
:1044D0001050A2F2FF3242431514119801281FD048
:1044E000A5EB0B00401C5FEA000A4FF000064E4FA0
:1044F000DFF83891B046504615D5CAF1000413E0F4
:10450000119801244AA3012801D16FEA0B010298F6
:10451000119AC0E90031C0E9024206B0BDE8F09F3F
:10452000CBF10000DFE704460021404A491842EB86
:104530000450CDE9001012E0E00707D032463B46B8
:1045400040464946FCF7ADF98046894632463B462F
:1045500010461946FCF7A5F906460F466410002CD4
:10456000EAD1DDE90401DDE90023BAF1000F06DA42
:10457000FCF797F942464B46FCF793F905E0FCF748
:1045800002FA42464B46FCF7FEF904460E4600226C
:10459000284BFCF7BFFA03D84FF0FF30014607E085
:1045A0000022254B20463146FCF7D4F8FCF73CFCB2
:1045B000102409E0002C0ADB0A220023FBF768FE26
:1045C000039B30321A55641E50EA0102F2D1641C7A
:1045D000039AC4F111031444119A012A03D0012251
:1045E00008430DD10AE0084304D000204FF0110B1E
:1045F000119072E7A3EB0B056D1E0DE05B4504DD2A
:104600004FF0000205F1010504E003DA4FF000026B
:10461000A5F10105002AECD002981199C0E90231F8
:10462000C0E9004579E70000000014400000F03FB9
:10463000300000000000F0430000E03F30380A285E
:1046400001D2012070470020704700002DE9FF4F84
:1046500095B09B468946064600250FE2252877D16E
:1046600000242746F84A0121059400E0044316F887
:10467000013F203B01FA03F01042F7D130782A289D
:1046800011D06FF02F033078A0F13002092A16D82C
:10469000059A44F0020402EB820203EB420210444A
:1046A000761C0590EFE759F8042B0592002A03DAEF
:1046B000504244F40054059044F00204761C3078D3
:1046C0002E2816D116F8010F44F004042A280DD024
:1046D0006FF02F023078A0F13003092B09D807EBD7
:1046E000870302EB4303C718761CF3E759F8047BF2
:1046F000761C30786C280FD006DC4C2817D0682840
:104700000DD06A2814D104E0742810D07A280FD173
:104710000DE044F400140AE044F4801401E044F491
:1047200040147278824202D104F58014761C761C03
:10473000307866280BD013DC582877D009DC0028A5
:1047400075D04528F6D04628F4D047281AD19DE1E7
:1047500018E0632835D0642879D0652812D195E116
:10476000702873D008DC6728F1D069286FD06E28D4
:104770000DD06F2806D1B5E073282CD0752875D0E0
:10478000782874D05A46179990476D1C75E1C4F388
:104790000250022809D003280DD0D9F800100428AF
:1047A0000DD00D6009F1040967E1D9F80010EA178E
:1047B000C1E90052F6E7D9F800100D80F2E70D705C
:1047C000F0E719F8041B8DF8001000208DF80100A7
:1047D000EA46012003E059F804AB4FF0FF306107CF
:1047E0004FF0000102D40DE008F101018846B94202
:1047F0000FDA8045F8DB1AF808100029F4D108E038
:1048000008F1010188468142FADB1AF808100029F4
:10481000F6D105985B46A0EB080721463846179A63
:1048200000F094FA284400EB080507E04DE029E188
:104830000DE01AF8010B5A4617999047B8F1010894
:10484000F7D25B4621463846179A13E142E00A2226
:104850000092C4F302524FF0000A022A08D059F81D
:1048600004CB032A4FEAEC710AD00DE029E02AE0DC
:1048700009F1070121F00702F2E802C1914609E0BF
:104880000FFA8CFC4FEAEC71042A03D14FFA8CFC2E
:104890004FEAEC71002907DA0A460021DCF1000C2E
:1048A00061EB02012D2202E0220504D52B228DF8B6
:1048B0000420012203E0E20701D02022F7E790461E
:1048C00059E00A2102E010220DE010214FF0000A09
:1048D00000910BE010224FF0000A44F00404082776
:1048E000009203E008224FF0000A0092C4F3025243
:1048F000022A05D059F804CB0021032A08D009E088
:1049000009F1070121F00702F2E802C1914605E032
:104910001FFA8CFC042A01D10CF0FF0C4FF00008A8
:10492000220728D5702806D0009B83F0100353EA95
:104930000A0305D00EE040228DF80420012208E091
:104940005CEA010206D030228DF804208DF80500C3
:1049500002229046009B83F0080353EA0A030AD11F
:104960005CEA010201D1620705D530228DF80420EE
:104970004FF001087F1E582804D034A003900EA8E1
:1049800002900DE036A0F9E753466046009AFBF727
:104990007FFC84460398825C0298401E029002705D
:1049A0005CEA0100F0D1029806A9081A00F1200A79
:1049B000600702D524F4803400E00127574502DD6A
:1049C000A7EB0A0000E0002000EB0A010090059828
:1049D0004144401A0590E00306D45B462146179AED
:1049E000059800F0B3F90544002706E001A85A46EF
:1049F000C05D179990476D1C7F1C4745F6DBE003AF
:104A00000CD55B462146179A059800F09FF905449E
:104A100004E030205A46179990476D1C0099481EB3
:104A200000900029F5DC08E0029802995A460078C7
:104A3000491C0291179990476D1CBAF10001AAF127
:104A4000010AF1DC65E10000092801003031323350
:104A500034353637383961626364656600000000BA
:104A600030313233343536373839414243444546A4
:104A70000000000000F058F90544761C307800284A
:104A80007FF4ECAD19B02846BDE8F08F620700D482
:104A9000062709F1070222F0070CFCE80223E14691
:104AA00003F000485FEA080C02D00FF2702C0DE012
:104AB0005FEA045C02D50FF2682C07E05FEAC47C71
:104AC00002D00FF2602C01E0AFF2700C4FF0FF3813
:104AD00023F00043CDF850C065280CD006DC4528F3
:104AE00009D046281DD047283DD13DE0662818D082
:104AF00067287ED138E00021112F01DB112000E072
:104B0000781CCDE9000106A90EA8FFF7D5FCDDE968
:104B10000F010E9A03910021009207F1010A0491FE
:104B20004DE04FF000400097CDE9011006A90EA816
:104B3000FFF7C2FCDDE90F0203920E9B11990022E0
:104B4000DDF80CA00093049211B9791C00EB010A66
:104B5000B7EB0A0004D4C0F1FF3007F1010A04905A
:104B6000AAEB0700019044E0012F00DA01270021A1
:104B7000112F01DD112000E03846CDE9000106A922
:104B80000EA8FFF799FCDDE90F010E9A03910021B1
:104B900004910092BA4621070CD40399514500DADA
:104BA0008A46BAF1010F05DD009AAAF10101515CB4
:104BB000302908D0B84202DA10F1040F06DA0121D8
:104BC000CDE9011015E0AAF10101E9E7002805DCB3
:104BD000049901440491AAEB000102E0411C5145F3
:104BE00000DD8A460499401A401C01904FF00040B5
:104BF0000290200704D40198504501DBCDF80480D1
:104C000000208DF84F0002980DF14F07B0F1004FD2
:104C100025D02B200E9002984FF0020800280CDAC5
:104C2000404202902D200E9007E00A210298FBF7E7
:104C3000A5FF3031029007F8011DB8F10001A8F17D
:104C40000108F2DC02980028EFD1791E0E98087056
:104C5000307800F0200040F0450007F8020D12A85F
:104C6000C01B00F107081498007800B1012000EB88
:104C70000A01019801EBE07105984144401A401E79
:104C80000590E00306D45B462146179A059800F08C
:104C90005DF805441498007818B15A461799904762
:104CA0006D1CE00324D55B462146179A059800F059
:104CB0004DF805441CE00498002807DBDDE90301FA
:104CC000884203DD0098405C179901E01799302075
:104CD0005A469047049805F10105401C049001983C
:104CE000401E019004D12E205A46179990476D1C02
:104CF000BAF10001AAF1010ADDDC05E017F8010BA9
:104D00005A46179990476D1CB8F10001A8F10108A7
:104D1000F4DC5B462146179A0598ABE62D000000AF
:104D20002B000000200000002DE9F0410446002582
:104D30001E461746880404D405E039462020B047B3
:104D40006D1C641EF9D52846BDE8F0812DE9F041BF
:104D5000044600251E469046C80301D5302700E0D2
:104D60002027880404D505E041463846B0476D1C2D
:104D7000641EF9D52846BDE8F0810A68531C0B6013
:104D8000107070472DE9F04105460E46002440E0C2
:104D90000BF032FC0746214800EB041000680028A5
:104DA00033D11E4800EB0410056038460BF082FC3E
:104DB00000201A4901EB0411486000BF174800EBBE
:104DC0000410807B20B100BF15A0FFF7BBFA00BF25
:104DD00000BF0020114901EB04110881287800F080
:104DE000F000102804D10EB1012002E0002000E004
:104DF00001200A4901EB041148810020074901EB19
:104E0000041188812046BDE8F08138460BF052FC41
:104E1000641C042CBCDB4FF0FF30F4E77405001079
:104E2000736F636B6574735B695D2E73656C65632B
:104E3000745F77616974696E67203D3D20300000C2
:104E4000014609B1086808B90020704719B1D1E9D5
:104E50000120904201D30846F7E702E08868401C31
:104E6000886041B1D1E90120904204D28A68086883
:104E7000805C2028F2DDD1E90120904202D18868CF
:104E8000401E88600846E0E770B50446002522E031
:104E90002568A08900F4807020B9A06810B1A068CE
:104EA000FFF7F2FFA08900F4807028B9206918B1DB
:104EB0000A4A206951688847A08900F4007028B91F
:104EC000206A18B1054A206A51688847034841683A
:104ED000204688472C46002CDAD170BD0C02001009
:104EE00070B504460D4600222946204603F0B8FB63
:104EF00070BD70B5044628202168884705461DB15D
:104F000028212846FBF743FA284670BD10B5044611
:104F100000221146204600F06BF810BD2DE9F04745
:104F20008AB004460E46154698461C2103A8FBF796
:104F30002EFA002700202C490860486004B106B909
:104F400032E00394049600200590284A07CA07AB74
:104F500007C32648FFF7CDFF074607B924E003A89B
:104F60000BF0E8F88246FFF76BFF8146494638466A
:104F700008F0BCFD00B917E0B8F1000F0BD003A892
:104F8000FFF75EFFDDE90410884203D2059903981C
:104F9000405C00B108E01DB1059903980844286001
:104FA00038460AB0BDE8F08717B13846FFF76CFF06
:104FB000C4B1019400200290DDE90410884202D2BD
:104FC0000598029004E0049810B10498401E0290E5
:104FD0001DB1DDE90101084428600348DDE9011243
:104FE00006C000BF0020DCE7040200100C02001025
:104FF0002DE9F04104460D46164614B90020BDE8DF
:10500000F0812046FBF7D8F9471C33462A4639463B
:105010002046FFF783FFF2E70024002564E03348D1
:10502000007D012860D10020304948750860304D6E
:10503000002419E0285DFF2808D1601C285CD828CE
:1050400004D12A4804600120284948752748407D3A
:1050500048B1285DFF2806D1601C285CD92802D100
:105060002248446005E0641C2048C068B4EB800F0F
:10507000E0D300BF1D4840681C490968401A801CE5
:105080001A49886008460068054408468068042874
:1050900012D908468068B0F5E83F0DD212F0CCF87E
:1050A0001248294682681348006806F08AFD12F00B
:1050B0000FF9052012F0F6FA00200C4908758860F7
:1050C0004860C86040F2DC510948FBF760F940F2E3
:1050D000DC5009490968486007480068006840F0EA
:1050E000010005490968086099E700000C7000108C
:1050F000000000207C0100105804001070B5044628
:105100000D4604B10DB9012070BDAC4201D10020A3
:10511000FAE705E0207808B90020F5E7641C6D1C6B
:105120002078FBF7F4F806462878FBF7F0F886427B
:10513000F0D02078FBF7EBF806462878FBF7E7F885
:10514000301AE1E770B505460C4603F0B3FA09489A
:1051500090ED000ADFED080A80EE201A85ED001AB6
:1051600090ED020ADFED040A80EE201A84ED001AA9
:1051700070BD0000B804001000007A442DED068BCD
:1051800086B042E02149481E01F0CFFD1F49C91CED
:10519000081DFFF7D7FF1D480B30FBF7BBFE1B4870
:1051A000401E90ED030A10EE101A0846FBF786FC2D
:1051B00041EC180B1548401E90ED020A10EE101A33
:1051C0000846FBF77BFC41EC190B1048401E90EDA4
:1051D000010A10EE101A0846FBF770FC41EC1A0B9E
:1051E0008DED048B8DED029B8DED00AB0748401ECD
:1051F0004378027806A11148FFF7B4F840F6B830BA
:1052000012F050FA0EA0FFF79DF8BBE72502001040
:105210007B2274656D70223A25642C2268756D6955
:10522000223A25642C2261223A25662C2276223AE3
:1052300025662C226C223A25667D0000340200107F
:10524000CAFDBEDDB2C9BCAF0D0A000010B51148E1
:10525000007DF0B910480068006820F001000E4998
:105260000968086000BF0D48006800F001000028D0
:10527000F9D109480068406840F2DC51081A054934
:10528000C860012008750846C068810004A0FFF7C7
:1052900059F810BD0C70001058040010286402402A
:1052A0006275665F6C656E3A25640D0A0000000049
:1052B0002DE9F8430446884615461E46089F00BF60
:1052C000002000902448006840F4800022490860D3
:1052D0000846006800F48000009000BF00BF00BFD7
:1052E0001E481F49886308461C49886300BF08465A
:1052F0000068006820F01000096808601948174924
:1053000008604FF000704860002114488160C1605F
:1053100007614FF48051416186610911C161490201
:10532000016204214162012181620021C1620163A5
:10533000FCF76CFC0948FCF7A1FC00BF0020074902
:1053400081F8340000BF2B46224607490348FCF78A
:105350000BFDBDE8F883000030380240580400100F
:1053600018040010286402402800055010B51148A8
:10537000114908600020486020210F488160002109
:10538000C160016141618161FCF706FB00200949B0
:10539000C86009480068C06840F001000649096813
:1053A000C86005480068006840F480400249096808
:1053B000086010BD00000550180400100748006880
:1053C000006840F001000549096808600448006869
:1053D00040F00100024908607047000058040010C6
:1053E0000000055070B504460420FEF72BF80A486B
:1053F000046025464FF47A7045434FF0E020006981
:1054000040F002004FF0E021086108464561006964
:1054100040F00100086170BD2000001030B5044666
:10542000002504E04FF47A7000F004F86D1CA542EA
:10543000F8D330BD70B5034600224FF0E026756901
:105440000D4E366803FB06F44FF0E026B16910E01C
:105450004FF0E026B06988420BD0884202D20E1A83
:10546000324402E02E1A0E4432440146A24200D3D6
:1054700000E0EDE700BF70BD2000001070B50546EC
:105480000E4600BF2DB900BF0CA0FEF75BFF00BFAA
:1054900070BD00BF6C6A00BF00BF6CB160790828A6
:1054A0000AD100BF00BF3068E169884204D100BF63
:1054B00000BF284600F01CFA00BFE9E76E6574697A
:1054C0006620213D204E554C4C0000007CB5064620
:1054D00000BF2EB900BF44A0FEF734FF00BF7CBD63
:1054E00000BF746A00BF2CB900BF46A0FEF72AFFB8
:1054F00000BFF4E700BF00BF00BF00206082A06AC9
:10550000401C90B100BF00BFA06A1E303C21B0FB20
:10551000F1F5B5F5803F01D34FF6FF75A582A08A5E
:1055200008B90120A08200BF00BFE06A401CA0B102
:1055300000BF00BFE06A1E303C21B0FBF1F5B5F5BD
:10554000803F01D34FF6FF756581608908B901205E
:10555000608100BF00BF6089E081206B401CA0B16A
:1055600000BF00BF206B1E303C21B0FBF1F5B5F54C
:10557000803F01D34FF6FF75A581A08908B90120AE
:10558000A08100BF00BFA08920826089A1898842D4
:1055900004DBA089002801DD00206081E07910B1E2
:1055A000206A01900FE0207F7F2802DCFF2101911B
:1055B00008E0C02803DB6FF07F41019102E04FF665
:1055C000FF71019100BF606A009000BF00BF0A2117
:1055D000204601F00FFA6B4601AA04F11C01304687
:1055E00007F044FD00BF7AE7646863705F62696E2C
:1055F000643A206E6574696620213D204E554C4CFE
:1056000000000000646863705F62696E643A206441
:1056100068637020213D204E554C4C002DE9F0412F
:105620000646746A00BF00BF0821204601F0E2F977
:10563000002204F11C01304602F096FA05460DB135
:1056400000BF00BFA079FF2802DAA079401CA0713A
:105650004FF4FA7707F2F310394690FBF1F020810E
:1056600000BF00BFBDE8F08170B500BF00BF1B48A0
:1056700005682FE06C6AFCB16079E8B1A08A78B166
:10568000608A401C80B26082A18A884208D100BF33
:1056900000BF284600F0D8FF284601F0B3F918E013
:1056A000208A50B1218A481E2082012905D100BFDD
:1056B00000BF284601F063FA0BE0E08948B1E189B8
:1056C000481EE081012904D100BF00BF284601F037
:1056D00031FA2D68002DCDD170BD0000EC00001016
:1056E0002DE9F05F07460D4616469A4600BF3FB9C2
:1056F00000BF44A0FEF726FE00BF0020BDE8F09FDB
:1057000000BF00BF35B900BF46A0FEF71BFE00BFBB
:105710000020F3E700BF4FF420724FF49A71362057
:1057200008F0D4FA8146B9F1000F03D100BF00BFE1
:105730000020E3E700BFB9F80A00B0F59A7F04D271
:1057400000BF40A0FEF7FEFD00BF00BF032E02D148
:105750006879032808D1A87918B9FAF7DFFD494913
:10576000086048480068286000BF00BFD9F80440BE
:105770004FF49A712046FAF70AFE012020706070FB
:1057800097F83000A070286804F0CAFE6060082E08
:105790000BD0042E09D0072E07D0032E07D168792D
:1057A000052802D06879042801D17868E0604FF0BC
:1057B00000080BE007F12A0010F8081004F11C00A3
:1057C00000F8081008F101001FFA80F8B8F1060F80
:1057D000F0D32D48C4F8EC000123352204F1F00188
:1057E000002000F0B1FA8346324604F1F001584639
:1057F00000F0C8FA8346BAF1000F01D0AAF800B051
:1058000048467BE7646863705F6372656174655FD7
:105810006D73673A206E6574696620213D204E5590
:105820004C4C0000646863705F6372656174655F0F
:105830006D73673A206468637020213D204E554C9B
:105840004C000000646863705F6372656174655F3B
:105850006D73673A20636865636B207468617420B8
:10586000666972737420706275662063616E206869
:105870006F6C642073747275637420646863705F06
:105880006D736700600100106382536310B500BF41
:105890000C480078002804DC00BF0BA0FEF752FD86
:1058A00000BF00BF07480078401E06490870084640
:1058B000007830B90D48006811F030F900200B492C
:1058C000086010BD5C010010646863705F70636203
:1058D0005F726566636F756E7428293A207265661B
:1058E000636F756E74206572726F720058010010DC
:1058F0002DE9FE4F0646746A00BF00BF0C2120460A
:1059000001F078F802AB042221463046FFF7E8FEAA
:10591000054675B3D5F804800423322208F1F0015E
:10592000BDF8080000F010FA0290E06904F0F8FDFC
:105930008246524608F1F001BDF8080000F052FA24
:1059400002902A4608F1F001BDF8080000F0C6FAFE
:1059500014484323144A2946CDE9006013480068DF
:1059600011F04AFA0746284608F086FD00BF00BF3E
:1059700004E0FFE700BF00BF4FF0FF37A079FF282A
:1059800002DAA079401CA07142F2107909F2F310FA
:105990004FF4FA7190FBF1F0208100BF00BF384650
:1059A000BDE8FE8F5096010854960108580100107A
:1059B0002DE9FE4F07467C6A4FF0000A00BF00BF8A
:1059C0000020E0610621204601F014F802AB01221C
:1059D00021463846FFF784FE0546002D4AD06E6802
:1059E00000BF00BF0223392206F1F001BDF8080014
:1059F00000F0AAF902903A8D06F1F001BDF8080016
:105A000000F034FA02900423372206F1F001BDF8C9
:105A1000080000F099F90290D0460DE0274810F8F0
:105A2000082006F1F001BDF8080000F0ABF9029083
:105A300008F1010000F0FF08B8F1040FEED32A4688
:105A400006F1F001BDF8080000F048FA00BF00BF01
:105A50001B4843231B4A2946CDE900701A480068B9
:105A600011F0CAF900BF00BF284608F005FD00BFCD
:105A700000BF01E000BF00BFA079FF2802DAA079D3
:105A8000401CA071A079062803DAA1790120884082
:105A900000E03C2000EB4001C1EBC0104FF6FF716D
:105AA00001EAC00909F2F3104FF4FA7190FBF1F02A
:105AB000208100BF00BF5046BDE8FE8F540100109A
:105AC00050960108549601085801001070B50D4811
:105AD000056814E06C6A8CB12089012803DD2089F7
